:020000041000EA
:1080000010B5184B184A9A4203D0184B154A9A4299
:1080100004D3174B174A9A4210D31EE0164B134A4B
:108020000332D21A92080132920000230D480E4901
:10803000CC58C45004339342FAD1EAE70F4B0C49B1
:108040000331C91A8908013189000023094C002035
:108050001A19106004338B42FAD1094B9847094B27
:10806000984710BD1CAE00101CAE001080AE001072
:1080700004B1001080AE001020AE001084AE0010DD
:10808000B59B00101199001010B5064C2378002BF9
:1080900007D1054B002B02D0044800E000BF0123AC
:1080A000237010BD80AE0010000000001CAE001058
:1080B00008B5084B002B03D00748084900E000BF73
:1080C00007480368002B00D108BD064B002BFBD0EE
:1080D0009847F9E7000000001CAE001084AE0010C5
:1080E0001CAE001000000000F0B587B001AC201CF1
:1080F000124B98470E2363600133E3600B3BA36090
:108100002361013B23700D3363800D4C0D4E0E4DEA
:108110000E4F02E0013C002C05D0301C291C01AAA6
:10812000B8470028F6D1074B1A6828200121135CB4
:108130001942FCD10123137507B0F0BDA9830010CB
:1081400012270000BCAE001000340040C1830010B4
:10815000F0B583B000AF561C131C0833DB08DB00FE
:108160006C46E31A9D466D462870002A07D000230E
:10817000E818CC5C44700133D8B28242F8D8282386
:108180003B807E807D600348391C034B9847BD4689
:1081900003B0F0BDBCAE0010D584001070B588B03F
:1081A0006B46DC1DD87106A928220A8001234B806A
:1081B0004C6003AC2280638017256D440495054E06
:1081C000301C054B9847301C211C044B98472878DD
:1081D00008B070BDBCAE001005850010A58400106D
:1081E00000B583B06B46D91D01230B709B20012283
:1081F000014B984703B000BD51810010F8B54F46C0
:108200004646C0B4104C10239946A14400260F4B9B
:1082100098460F4F2578611C281C0122C047281C56
:10822000B8476378834201D00136F6B202344C4538
:10823000F0D13820064CA0479E20A047301C0CBC33
:1082400090469946F8BDC04644AB001051810010DD
:108250009D81001008B53720064B98470323034043
:108260000022032B04D18008012358400132024030
:10827000101C08BD9D81001008B50F4A137801330A
:1082800013700E4B9847002802D00D4B984711E011
:108290000C4B9847FA225200FA21890006E0C046AA
:1082A000013B002BFBD1013A002A01D00B1CF6E761
:1082B000FFF7E2FF08BDC0469CAE001055820010DB
:1082C000FD810010E1810010F0B54F464646C0B474
:1082D000814602684D881723002D2FD028260124BF
:1082E000935D1C42FCD1012334241355143C1355D7
:1082F0000B885B000224FF3423439BB213800024CD
:1083000001239846137BDBB24046184206D0671C17
:1083100010798446486866460655BCB2AC42F1D333
:10832000DB0603D41021137A0B42FCD04B4659795B
:108330000023002902D12033D1540023181C0CBC87
:1083400090469946F0BDC046F0B5844602684E8816
:1083500028250124535D1C42FCD1012334241355EC
:10836000143C13550B885B00E03423439BB213800D
:1083700000240125137ADBB21D4204D0671C486833
:10838000045D1480BCB2B442F4D3DB0603D41021E4
:10839000137A0B42FCD063465B79002B02D100219B
:1083A0002033D1540020F0BD032303700D334380EC
:1083B000083B43600133C360073B83600361704740
:1083C000F8B50160002859D0002A59D02825012489
:1083D0004B5D1C42FCD1141C051C00230B7503686B
:1083E000284A934203D10320274B984706E01720E1
:1083F000264A934245D10230234B984700232B74E1
:108400006B746B82AB8200226A77AB61204B1D607C
:108410002B681C4A93420FD11E4F1820391C1E4E48
:10842000B0471920391CB0471C4B802252001A60FB
:108430000132FF321A6011E0144A93420ED1154FF7
:108440001A20391C144EB0471B20391CB047134B5F
:108450008022D2001A60802212011A602D682079D1
:1084600021890F4EB047207B218AB04723782B7497
:1084700063882B8301232B77002002E0172000E084
:108480001720F8BD00300040498F00100034004034
:10849000DCAE001035850010B193001000E100E063
:1084A000058A001008B500280CD000290CD0828A5B
:1084B00092B20523002A08D100234371044B984748
:1084C000031C02E0172300E01723181C08BDC04658
:1084D000C982001008B500280CD000290CD0828A6F
:1084E00092B20523002A08D100234371044B984718
:1084F000031C02E0172300E01723181C08BDC04628
:108500004983001008B500280CD000290CD0828ABD
:1085100092B20523002A08D1043B4371044B9847CB
:10852000031C02E0172300E01723181C08BDC046F7
:108530004983001070B582B0574B1C682668637C75
:10854000257C1D40638A9BB2002B07D1A38A9BB276
:10855000002B03D0A38A9BB263824EE0638A9BB256
:10856000002B19D0A38A9BB2002B15D1637F052B5A
:1085700012D1237F002B0FD12C22B3546382637757
:108580006379002B02D100222033F254EB0734D55B
:10859000A368201C984730E0638A9BB2002B2CD044
:1085A000A38A9BB2002B28D0237F002B17D1638A8C
:1085B000A28A9B1A9BB26A46D380A38A013B9BB2D4
:1085C000A382D388A269944663441B783380A38A2C
:1085D0009BB2002B11D110222C33F2540DE0638A90
:1085E000A18AA28A013A92B2A2825B1A9BB2A269C4
:1085F000944663443279D2B21A70638A9BB2002BDC
:108600001CD0A38A9BB2002B18D1637F052B15D1F8
:10861000237F012B12D100233022B354638263776E
:108620006379002B02D100222033F254AB0705D529
:10863000237F012B02D1E368201C9847237F012B65
:1086400014D12368154A934206D180214900C023E2
:108650005B00134AD1501DE0124A93421AD1802187
:10866000C900C0235B000E4AD15013E023680B4AB7
:10867000934206D180218900C0235B00084AD15073
:1086800008E0084A934205D180210901C0235B001C
:10869000034AD15002B070BDDCAE00100030004083
:1086A00000E100E000340040002303600133037167
:1086B0007047C04601228023DB051A731A1C137B06
:1086C000002BFCD17047C04608B58023DB051B7B1F
:1086D000002B06D0034B9847034B1B68002B00D0A0
:1086E000984708BDB5860010A0AE00108022D205C4
:1086F000117801230B4313707047C046014B18607B
:108700007047C046A0AE001010B5041C0620094BEF
:1087100098472379DB00DBB28022D20513702368EF
:1087200093600022044B1A602A200449044B9847A6
:1087300010BDC046498F0010A0AE0010C9860010C1
:10874000B1930010F0B5474680B40C1C9046002849
:1087500010D1002A0ADD8F18094E0A4D3068211CFD
:108760002B6898470134BC42F8D101E000239846B9
:10877000404601E00120404204BC9046F0BDC046A6
:10878000E8AE0010E0AE0010F0B5474680B4013806
:10879000022815D8002A10D0151C0E1C00240C4BE2
:1087A00098460C4F43461868315D3B68984700284F
:1087B00009DB0134A542F5D100E00024201C04E0CF
:1087C0000120404201E00120404204BC9046F0BD3F
:1087D000E8AE0010E4AE00100023037001224270E6
:1087E0008370C3707047C046F0B51723012800D8C6
:1087F000D0E0072809D8684D6A6C103B03409B0005
:1088000007249C40A2436A642CE00F2809D8624DDB
:10881000AA6C072303409B0007249C40A243AA6440
:1088200020E0172809D85C4DEA6C072303409B0021
:1088300007249C40A243EA6414E0031C2C3B032B56
:1088400010D8564D8224E4002B5D0F221340071CE4
:108850002C3F0126BE40B3431A402B5D0F26B34385
:1088600013432B55031C1D3B022B2AD84B78012B9D
:1088700008D14A4D2B7D1F22141A1E3AA240934361
:108880002B7509E0454D2E7D1F24241A0122131C4F
:10889000A3403343DBB22B75CA780023002A79D07A
:1088A0003E490B881F22101A80001E3A8240134353
:1088B0009BB20B803A4A117802230B4313700023BA
:1088C00068E00A78002A43D10F2808D801238340A2
:1088D0009BB2344A938200231F285BD812E01F28E2
:1088E00007D80F23034001229A4093B22E4A938265
:1088F00008E00F2318400E3B834098B22B4B988220
:10890000002347E04B78012B0DD0002B02D0022B27
:1089100011D03EE020490B6D01228240101C18430B
:108920000865002336E01C490B6D01228240934309
:108930000B6500232EE0184B596D01228240101C5C
:108940000A1C02435A651A6D82431A65002321E00E
:108950000023012A1ED10F2806D80133834098B284
:10896000104B1882002315E01F2809D80F23184048
:108970000122131C83409BB20B4A1382002309E09F
:108980000F2318400E3B834098B2084B18820023F7
:1089900000E01723181CF0BD00B0004000F00040BC
:1089A00000E00040000001400010014000300140A4
:1089B0000F2808D8104A918801238340181C48408A
:1089C00080B2908016E01F280AD80C4A91880F23A5
:1089D00018400E3B8340181C484080B2908009E04C
:1089E000074A91880F2318400E3B8340181C4840CB
:1089F00080B290807047C0460000014000100140E6
:108A00000030014070B50C0AFF231940072835D803
:108A1000514A556CF83B03409B0007269E40B543E6
:108A20005564556C0E1C9E40331C2B435364012926
:108A300000D090E0032810D8111CD02252008D588D
:108A400003231840C0003C3383409D438D508B5816
:108A50008440201C184388507DE03F49D2225200B8
:108A60008D5803231840C0003C3383409D438D50F4
:108A70008B588440201C184388506CE00F2834D851
:108A8000354A956C072303409B0007269E40B5435B
:108A90009564956C0E1C9E40331C2B4393640129F6
:108AA00059D10B2810D8111CD42252008D58032301
:108AB0001840C0003C3383409D438D508B58844008
:108AC000201C1843885046E02349D62252008D5876
:108AD00003231840C0003C3383409D438D508B5886
:108AE0008440201C1843885035E0172833D81A4A90
:108AF000D56C072303409B0007269E40B543D564F1
:108B0000D56C0E1C9E40331C2B43D364012922D10B
:108B1000132810D8111CD82252008D580323184056
:108B2000C0003C3383409D438D508B588440201CB3
:108B3000184388500FE0084ADA235B00D158032518
:108B40002840C0003C358540A943D150D1588440CD
:108B5000201C0843D05070BD00B0004001280DD04B
:108B6000002802D002281CD02EE0184A90690C235D
:108B700003439361164A174B1A601AE0134B986926
:108B8000082202439A619A69042082439A61124A38
:108B900053688020000303435360104A0D4B1A6052
:108BA00007E00A4A93690C2083439361084A094B02
:108BB0001A60064B9A69032082439A619A690140C0
:108BC00011439961002000E01720704700B0004079
:108BD00080BA8C01ECAE001000F0004080841E00D2
:108BE000014B18687047C046ECAE001000B5352840
:108BF00000D9A2E18000D24B1B589F46D14AD168D0
:108C000002230B43D360002098E1CE4AD1680423AD
:108C10000B43D360002091E1CA4AD16808230B437B
:108C2000D36000208AE1C74AD16810230B43D36088
:108C3000002083E1C34AD16820230B43D360002086
:108C40007CE1C04AD16880230B43D360002075E1EA
:108C5000BC4AD368802149000B43D36000206DE1FA
:108C6000B84AD368802109010B43D360002065E135
:108C7000B44AD368802149010B43D36000205DE1F1
:108C8000B04AD368802189010B43D360002055E1AD
:108C9000AC4AD3688021C9010B43D36000204DE169
:108CA000A84AD368802109020B43D360002045E124
:108CB000A44AD368802149020B43D36000203DE1E0
:108CC000A04AD368802189020B43D360002035E19C
:108CD0009C4AD3688021C9020B43D36000202DE158
:108CE000984AD368802109030B43D360002025E113
:108CF000944AD368802149030B43D36000201DE1CF
:108D0000904AD368802189030B43D360002015E18A
:108D10008C4AD3688021C9030B43D36000200DE146
:108D2000884AD368802109040B43D360002005E101
:108D3000844AD368802149040B43D3600020FDE0BE
:108D4000804AD368802189040B43D3600020F5E07A
:108D50007C4AD3688021C9040B43D3600020EDE036
:108D6000784AD368802109050B43D3600020E5E0F1
:108D7000744AD368802149050B43D3600020DDE0AD
:108D8000704AD368802189050B43D3600020D5E069
:108D90006C4AD3688021C9050B43D3600020CDE025
:108DA000684A116901230B4313610020C6E0654A3C
:108DB000116902230B4313610020BFE0614A11696E
:108DC00004230B4313610020B8E05E4A11690823B5
:108DD0000B4313610020B1E05A4A116910230B4381
:108DE00013610020AAE0574A116920230B43136145
:108DF0000020A3E0534A116940230B431361002074
:108E00009CE0504A116980230B431361002095E0D8
:108E10004C4A1369802149000B43136100208DE007
:108E2000484A1369802189000B431361002085E0C3
:108E3000444A13698021C9000B43136100207DE07F
:108E4000404A1369802109010B431361002075E03A
:108E50003C4A1369802149010B43136100206DE0F6
:108E6000384A1369802189010B431361002065E0B2
:108E7000344A13698021C9010B43136100205DE06E
:108E8000304A1369802109020B431361002055E029
:108E90002C4A1369802149020B43136100204DE0E5
:108EA000284A1369802189020B431361002045E0A1
:108EB000244A13698021C9020B43136100203DE05D
:108EC000204A1369802109030B431361002035E018
:108ED0001C4A1369802149030B43136100202DE0D4
:108EE000184A1369802189030B431361002025E090
:108EF000144A13698021C9030B43136100201DE04C
:108F0000104A1369802109040B431361002015E006
:108F10000C4A117D01230B43137500200EE0094A12
:108F2000117D02230B431375002007E0054A117DD4
:108F300004230B431375002000E0172000BDC0463A
:108F400054AB001000B0004000B5432800D923E224
:108F50008000E04B1B589F46DF4B5968022291432B
:108F6000596059680A435A60002016E2DA4B596882
:108F700004229143596059680A435A6000200CE268
:108F8000D54B596808229143596059680A435A6081
:108F9000002002E2D04B5968102291435960596871
:108FA0000A435A600020F8E1CB4B596820229143D4
:108FB000596059680A435A600020EEE1C64B59686F
:108FC00040229143596059680A435A600020E4E105
:108FD000C14B596880229143596059680A435A60CD
:108FE0000020DAE1BC4B5968BC4A0A405A605A6812
:108FF000802149000A435A600020CEE1B64B5968EF
:10900000B74A0A405A605A68802189000A435A6068
:109010000020C2E1B04B5968B24A0A405A605A680F
:109020008021C9000A435A600020B6E1AA4B596862
:10903000AD4A0A405A605A68802109010A435A60C1
:109040000020AAE1A44B5968A84A0A405A605A680D
:10905000802149010A435A6000209EE19E4B5968D5
:10906000A34A0A405A605A68802189010A435A601B
:10907000002092E1984B59689E4A0A405A605A680B
:109080008021C9010A435A60002086E1924B596849
:10909000994A0A405A605A68802109020A435A6074
:1090A00000207AE18C4B5968944A0A405A605A6809
:1090B000802149020A435A6000206EE1864B5968BC
:1090C0008F4A0A405A605A68802189020A435A60CE
:1090D000002062E1804B59688A4A0A405A605A6807
:1090E0008021C9020A435A60002056E17A4B596830
:1090F000854A0A405A605A68802109030A435A6027
:1091000000204AE1744B5968804A0A405A605A6804
:10911000802149030A435A6000203EE16E4B5968A2
:109120007B4A0A405A605A68802189030A435A6080
:10913000002032E1684B5968764A0A405A605A6802
:109140008021C9030A435A60002026E1624B596816
:10915000714A0A405A605A68802109040A435A60D9
:1091600000201AE15C4B59686C4A0A405A605A6800
:10917000802149040A435A6000200EE1564B596889
:10918000674A0A405A605A68802189040A435A6033
:10919000002002E1504B5968624A0A405A605A68FE
:1091A0008021C9040A435A600020F6E04A4B5968FE
:1091B0005D4A0A405A605A68802109050A435A608C
:1091C0000020EAE0444B5968584A0A405A605A68FD
:1091D000802149050A435A600020DEE03E4B596871
:1091E000534A0A405A605A68802189050A435A60E6
:1091F0000020D2E0384B59684E4A0A405A605A68FB
:109200008021C9050A435A600020C6E0324A5368EB
:109210005B005B0853605368802109060B43536071
:109220000020BAE02C4B1A8901218A431A8119893E
:1092300001220A431A810020AFE0274B1A8902213C
:109240008A431A81198902220A431A810020A4E064
:10925000214B1A8904218A431A81198904220A435D
:109260001A81002099E01C4B1A8908218A431A812F
:10927000198908220A431A8100208EE0164B1A89A8
:1092800010218A431A81198910220A431A81002069
:1092900083E0114B1A8920218A431A8119892022DF
:1092A0000A431A81002078E00B4B1A8940218A4337
:1092B0001A81198940220A431A8100206DE0064B69
:1092C0001A8980218A431A81198980220A431A81C6
:1092D000002062E02CAC001000B00040FFFEFFFF59
:1092E000FFFDFFFFFFFBFFFFFFF7FFFFFFEFFFFFAC
:1092F000FFDFFFFFFFBFFFFFFF7FFFFFFFFFFEFF5F
:10930000FFFFFDFFFFFFFBFFFFFFF7FFFFFFEFFF8B
:10931000FFFFDFFFFFFFBFFFFFFF7FFFFFFFFFFE3E
:10932000FFFFFFFDFFFFFFFBFFFFFFF7FFFFFFEF6B
:10933000FFFFFFDFFFFFFFBF184B1989184A0A40E4
:109340001A811989802252000A431A81002024E0E0
:10935000124B1989134A0A401A81198980229200F6
:109360000A431A81002018E00C4B19890E4A0A4062
:109370001A8119898022D2000A431A8100200CE048
:10938000064B1989094A0A401A811989802212015B
:109390000A431A81002000E0172000BD00B0004001
:1093A000FFFEFFFFFFFDFFFFFFFBFFFFFFF7FFFFDC
:1093B0008023DB049C466044800001607047C04607
:1093C00038B5204B1C6823681D7DEDB26A0613D5A5
:1093D0001E212222A1541A7E23318A431A76212388
:1093E000E35C1B0706D52023E35C1B0702D5201C8A
:1093F0002369984723681B7CEB0722D523681B7CD5
:10940000DBB262691370636901336361A38B013B53
:109410009BB2A383A38B9BB2002B12D12133E35CBD
:109420005B070ED52023E35C5B070AD500222223CD
:10943000E2542268137E01218B431376E368201CDB
:10944000984738BDF0AE001038B5214B1C68236832
:109450001D79EDB2EA0717D5A2691178C9B20132B8
:10946000A2611970E38B013B9BB2E383E38B9BB258
:10947000002B09D12268137A01218B4313722268D1
:10948000117A10230B431372EB0612D52123E35CF0
:10949000DB070ED52023E35CDB070AD5002222235D
:1094A000E2542268137A10218B431372201C6368E4
:1094B0009847AB060AD52123E35C9B0706D52023FA
:1094C000E35C9B0702D5A368201C984738BDC046C3
:1094D000F0AE001038B5204B5C6823681D7DEDB2FE
:1094E0006A0613D51E212222A1541A7E23318A43F3
:1094F0001A762123E35C1B0706D52023E35C1B07B8
:1095000002D5201C2369984723681B7CEB0722D5D2
:1095100023681B7CDBB2626913706369013363618A
:10952000A38B013B9BB2A383A38B9BB2002B12D1D5
:109530002133E35C5B070ED52023E35C5B070AD590
:1095400000222223E2542268137E01218B431376EA
:10955000E368201C984738BDF0AE001038B5214BA9
:109560005C6823681D79EDB2EA0717D5A269117806
:10957000C9B20132A2611970E38B013B9BB2E38354
:10958000E38B9BB2002B09D12268137A01218B4314
:1095900013722268117A10230B431372EB0612D553
:1095A0002123E35CDB070ED52023E35CDB070AD530
:1095B00000222223E2542268137A10218B43137273
:1095C000201C63689847AB060AD52123E35C9B0700
:1095D00006D52023E35C9B0702D5A368201C98478F
:1095E00038BDC046F0AE0010E1235B0203600023EB
:1095F000037143718371C371023383600322C260BC
:1096000001320261013242618361C36103624362DC
:109610007047C046F8B54F464646C0B4051C171CF7
:109620000160002343608360C36003614361836121
:1096300000228383C3832033C2540133C2540133D5
:10964000C254554B994218D10920544CA0470A20C6
:10965000A0470920524CA0470A20A047514B1D604B
:1096600010205149514CA04711205149A047514B5E
:1096700001221A6001321A601AE04F4B994217D149
:109680000B20464CA0470C20A0470B20444CA04781
:109690000C20A047434B5D6012204849434CA04733
:1096A00013204749A047434B04221A6004321A6032
:1096B000FB7904229046002B52D1023398464FE0AA
:1096C0003078318AC8470134E4B204364445F7D3D0
:1096D0002B681A7DD20704D501211A7C1A7D0A4213
:1096E000FBD1002120229954FB79591E8B4159014D
:1096F0007B793A7913430B43BA79022A0DD0D1B260
:10970000022902D8012A05D00FE0032A08D0042A32
:1097100009D00AE00222134307E00622134304E0C3
:109720000A22134301E00E221343202229688B549E
:109730003E68244B9847041C311C234B984782B247
:109740000004000C7043201A3109884206D9002316
:109750000133DBB2401A8842FAD807E0002305E063
:109760003E1C08360024194B9946A9E70021282001
:109770002C68215401331B075B0FD20013439BB2AB
:109780002A6893842B6819762B68197200200CBC08
:1097900090469946F8BDC04600400040498F0010F1
:1097A000ED8B0010F0AE0010C1930010B1930010CB
:1097B0004994001000E100E000500040D5940010F2
:1097C0005D950010E18B0010919A0010058A001041
:1097D0000268012013790342FCD011700020704709
:1097E00002680120137D0342FCD0137C0B70002023
:1097F0007047C046031C064A1268002A02D1054978
:10980000034A1160024A1068C31813607047C046CB
:10981000A4AE001008B90010012040427047C046B5
:1098200080239B014B6000207047C0460120704799
:1098300000207047064A136801331360054A136815
:1098400001331360044A1368013313607047C04644
:10985000B0AE0010A8AE0010ACAE001070B5061C83
:109860000D1C034C301C291CA0470028FAD170BDE8
:10987000E197001070B5061C0D1C034C301C291C10
:10988000A0470028FAD170BDD197001070B584B000
:10989000061C00241D4D201C1A30C0B2A8476B4680
:1098A000E05401340F2CF6D15B781B026A46127823
:1098B000134333806B46DB781B026A46927813436E
:1098C00073806B465B791B026A4612791343B3803F
:1098D0006B46DB791B026A4692791343F3806B4631
:1098E0005B7A1B026A46127A134333816B46DB7A3A
:1098F0001B026A46927A134373816B465B7B1B02A1
:109900006A46127B1343B38104B070BD9D81001081
:10991000F0B58FB0002000213F4B984704AC201CCD
:109920003E4B9847012323701620211C3C4B98473F
:10993000201C3C4B9847E1235B0204930223A36065
:109940000322E2600132226101326261A361E361BC
:1099500023626362344E354D354C301C291C04AAF9
:10996000A0470028F9D13048324B1860324A334BB7
:109970001A60334A334B1A602C4904AA2C4B98477F
:10998000314D2B6898680021304CA0472B685868EF
:109990000021A04704A82E4B98472E4B049304A8FF
:1099A0002D4B98472D4B98472D482E4B984780229A
:1099B000D2042D4B1A602D4B98472D4B98472D4CB8
:1099C0002D4F261C2368642B03D91620B84700238B
:1099D00033602A4B1B680A2BF4D9294D281C294BCC
:1099E00098470023E95E0223EA5E04202B5E9C4632
:1099F000E88800900823E85E01900A23E85E029060
:109A00000C23E85E039020486346204DA8470022BF
:109A10001A4B1A60D6E7C0465D8B0010D98700103C
:109A2000E9870010E995001034AF001000400040B5
:109A300015960010E8AE001075980010E4AE001006
:109A40005D980010E0AE00107CAE0010459C001048
:109A5000A98600109065000009870010ED860010AF
:109A600035980010FD86001000E100E0E98000104C
:109A700079820010A8AE0010B1890010ACAE0010C1
:109A800074AF00108D98001048AD0010119C0010AC
:109A9000002243088B4274D303098B425FD3030A2D
:109AA0008B4244D3030B8B4228D3030C8B420DD340
:109AB000FF22090212BA030C8B4202D312120902CE
:109AC00065D0030B8B4219D300E0090AC30B8B420C
:109AD00001D3CB03C01A5241830B8B4201D38B03BA
:109AE000C01A5241430B8B4201D34B03C01A52415F
:109AF000030B8B4201D30B03C01A5241C30A8B42A2
:109B000001D3CB02C01A5241830A8B4201D38B028C
:109B1000C01A5241430A8B4201D34B02C01A524130
:109B2000030A8B4201D30B02C01A5241CDD2C309A2
:109B30008B4201D3CB01C01A524183098B4201D31E
:109B40008B01C01A524143098B4201D34B01C01A09
:109B5000524103098B4201D30B01C01A5241C30881
:109B60008B4201D3CB00C01A524183088B4201D3F0
:109B70008B00C01A524143088B4201D34B00C01ADC
:109B80005241411A00D20146524110467047FFE748
:109B900001B5002000F00CF802BDC0460029F7D046
:109BA00003B5FFF775FF0EBC4243891A1847C0463C
:109BB0007047C0460E4B70B500251E1C0D4CE41AB4
:109BC000A410A54204D0AB00F35898470135F8E73C
:109BD00001F014F9084B00251E1C084CE41AA410CF
:109BE000A54204D0AB00F35898470135F8E770BDA3
:109BF00008AE001008AE001008AE00100CAE001049
:109C0000031C8218934202D019700133FAE770479F
:109C10000FB40B4B13B51C68002C05D0A369002BA7
:109C200002D1201C00F096F905AB201CA168049A13
:109C3000019300F0F1FA16BC08BC04B01847C04606
:109C40007CAE001008B54A424A4180235200DB0036
:109C500000F002F808BD0000F7B51E1C3C4B041CC8
:109C60001D680F1C0192002D05D0AB69002B02D19D
:109C7000281C00F06FF9374B9C4201D16C6808E05A
:109C8000354B9C4201D1AC6803E0344B9C4200D17F
:109C9000EC68019B022B58D8002E56DB281C211C97
:109CA00000F0EAF800236360A361A3891B0603D5D3
:109CB000281C216900F0EAF98322A3899343A38138
:109CC000019B022B13D0002F25D1002E01D180261D
:109CD000F600301C00F0D0F9071E18D18020C0001B
:109CE00000F0CAF9071E10D10120404200E0002018
:109CF0000222A3891343A3810023A360231C4733BB
:109D0000236023610123636121E08026F600802225
:109D1000A3891343A381019B012B05D1A389019A38
:109D20001A437342A281A3610D4B0020AB62A2894A
:109D3000276027616661130709D503231A40534240
:109D400053415B421E40A66001E001204042FEBD3F
:109D50007CAE001068AD001088AD0010A8AD0010FA
:109D6000D19E0010F7B58A89051C0C1C13075ED420
:109D70004B68002B02DC0B6C002B1ADDE76A002F0E
:109D800017D000232E682B6080235B011A4001D07E
:109D9000626D15E0281C216A0123B847021C431C90
:109DA0000ED12B68002B0BD01D2B01D0162B02D10E
:109DB0002E6000205EE04021A3890B43A38159E07F
:109DC000A3895B0706D56368D21A636B002B01D0A9
:109DD000236CD21A0023281C216AE76AB847A3899A
:109DE000421C06D12A68002A03D01D2A01D0162A57
:109DF00019D10022626022692260DB0405D5431C70
:109E000002D12B68002B00D16065616B2E600029A8
:109E1000CFD0231C4433994202D0281C00F036F9DD
:109E20000020606326E040221343A38122E00F69F3
:109E3000002FBED00B680F60DB1B0193002392073D
:109E400000D14B69A360019B002BB2DD281C216A65
:109E50003A1C019BA66AB047002806DC402201207C
:109E6000A38940421343A38104E0019B3F181B1ABE
:109E70000193E8E7FEBD000038B50B69051C0C1C1A
:109E8000002B01D100201CE0002804D08369002BA6
:109E900001D100F05FF80B4B9C4201D16C6808E0E7
:109EA000094B9C4201D1AC6803E0084B9C4200D1B5
:109EB000EC680C22A35E002BE4D0281C211CFFF7C9
:109EC00051FF38BD68AD001088AD0010A8AD00107E
:109ED00008B5024900F0AEF808BDC046799E0010F2
:109EE000002310B5041C03604360836081814366D6
:109EF000C281036143618361191C08225C30FFF752
:109F00007FFE054B24626362044BA362044BE36251
:109F1000044B236310BDC04669A7001091A7001031
:109F2000C9A70010F5A7001070B568254B1E5D434A
:109F30000E1C291C743100F0EFF8041E08D000211B
:109F40002A1C016046600C30A0606832FFF758FEA2
:109F5000201C70BD836913B5002B28D18364C364B2
:109F60000365134B134A1B6882620193984201D127
:109F700001238361041C00F01FF86060201C00F0C6
:109F80001BF8A060201C00F017F80421E0600022FC
:109F90006068FFF7A5FFA06809210122FFF7A0FF75
:109FA000E06812210222FFF79BFF0123A36113BD8A
:109FB00064AD0010D19E0010F8B51D4B061C1D6845
:109FC000AB69002B02D1281CFFF7C4FF4835AC68F1
:109FD0006B68013B05D40C22A75E002F10D06834BB
:109FE000F7E72B68002B06D1301C0421FFF79CFFFC
:109FF0002860002801D02D68E9E70C23336016E0C3
:10A000000123201C5B42E3810233A3816766276042
:10A01000A760676027616761A7615C30391C08220F
:10A02000FFF7EEFD201C6763A763A764E764F8BD34
:10A0300064AD0010F7B5041C071C002601914834DC
:10A04000002C16D06368A5680093009B013B009329
:10A050000DD4AB89012B08D90E22AB5E013304D09D
:10A06000381C291C019B984706436835EDE7246896
:10A07000E6E7301CFEBD000008B5034B011C186864
:10A0800000F04AF808BDC0467CAE001030B500298B
:10A090003ED004390B68002B00DAC9181D4A13683A
:10A0A000141C002B02D14B60116031E099420DD29B
:10A0B00008680A189A4203D11368C3180B605368E2
:10A0C0004B60216024E08A4203D8131C5A68002A9E
:10A0D000F9D11D685C198C420BD1096869185818B0
:10A0E0001960904214D110685268091819605A60BA
:10A0F0000EE08C4202D90C23036009E008680C18BA
:10A10000944203D114685268001908604A6059608B
:10A1100030BDC046B8AE0010032370B5CC1C9C43C4
:10A120000834051C0C2C01D20C2405E0002C03DAA9
:10A130000C2300202B6042E08C42F9D3204A1368A4
:10A14000101C191C002913D00A68121B0DD40B2AED
:10A1500002D90A608B181FE08B4202D15A68026054
:10A160001BE04A685A600B1C17E00B1C4968E9E7C2
:10A17000144E3368002B03D1281C00F0E3FA306042
:10A18000281C211C00F0DEFA031C421CD0D0032244
:10A19000C61C964386420AD11C60181C07210B304E
:10A1A0001A1D8843821A0AD05142995007E0311A89
:10A1B000281C00F0C7FA431CBAD0331CECE770BD72
:10A1C000B8AE0010B4AE0010936810B5013B9360B8
:10A1D000002B05DA9469A34208DBCBB20A2B05D029
:10A1E0001368581C10601970C8B201E000F008FB39
:10A1F00010BDF8B5061C0F1C141CD518AC4208D0B5
:10A200002178301C3A1CFFF7DFFF0134431CF5D1E5
:10A2100000E00020F8BD0000F0B59FB0061C0F1C48
:10A2200002920593002804D08369002B01D1FFF727
:10A2300091FE794B9F4201D1776808E0774B9F42AE
:10A2400001D1B76803E0764B9F4200D1F768BB8924
:10A250001B070AD53B69002B07D0002306AD6B61B5
:10A2600020336B761033AB763DE0301C391C00F0A8
:10A2700033FB0028F1D001204042CAE0059A111DAD
:10A2800012680591002A7EDB0992013423782E2B77
:10A2900000D189E021786348032200F00FFC0028F8
:10A2A00008D0604B0134C01A40238340181C2B682F
:10A2B000184328602178631C5B48062202932976A4
:10A2C00000F0FCFB002800D191E0584B002B00D09F
:10A2D00084E00722059B07339343083305936B699A
:10A2E000039A9B186B61029C2378002B04D1029B7C
:10A2F000E31A049311D003E0252BF8D00134F3E7DF
:10A30000049B301C391C029AFFF773FF431C7BD05F
:10A310006A69049B944663446B612378002B73D075
:10A320000122002352426A6002A9543252180134B9
:10A330002B60EB60AB601370AB6521783C48052265
:10A3400000F0BCFB002809D0394B0134C01A0123AE
:10A350008340181C2B6818432860EEE72B68DA0648
:10A3600004D55322202102A8121811701A0704D50F
:10A3700053222B2102A81218117022782A2A00D108
:10A380007CE7099B05E05242EA60022213432B60FE
:10A390007BE72278303A092A04D80A214B4301345A
:10A3A0009B18F6E7099371E763782A2B09D1059B7F
:10A3B00002341A1D1B680592002B0DDA01235B4243
:10A3C0000AE0002301342278303A092A04D80A210D
:10A3D0004B4301349B18F6E707935BE705AB00930B
:10A3E000301C291C3A1C134B00E000BF07E005ABF2
:10A3F0000093301C291C3A1C0E4B00F08BF8039084
:10A40000039B013300D06AE7BB895B0600D532E7C6
:10A410000B981FB0F0BDC04668AD001088AD0010AD
:10A42000A8AD0010CEAD0010D2AD001000000000AD
:10A43000C8AD0010F3A10010F7B5171C01930A690D
:10A440008B6800900C1C934200DA131C221C3B60AA
:10A4500043321278002A01D001333B6023689B0607
:10A4600002D53B6802333B60062523681D401ED0A1
:10A47000231C43331B785A1E9341226892061CD535
:10A480003020E1184031C870211C5A1C4531097830
:10A49000A21840320233D1700FE0221C0123009831
:10A4A00001991932089EB047431C0ED00135E3686C
:10A4B0003A689B1A9D42F0DBDAE7221C009801996A
:10A4C0004332089DA847431C02D10120404220E0AE
:10A4D00006232068E1683A6803400025042B03D175
:10A4E0008D1AEB43DB171D40A3682269934201DDFF
:10A4F0009B1AED180027AF420ADA221C01230098AC
:10A5000001991A32089EB047431CDED00137F2E7AA
:10A510000020FEBDF0B58BB006920A1C43320793B3
:10A52000059004920A7E0C1C109B6E2A00D1A8E0B4
:10A5300011D8632A22D009D8002A00D1B2E0582AC3
:10A5400000D0C2E045310A707C4A4FE0642A1DD039
:10A55000692A1BD0B9E0732A00D1A7E009D86F2A75
:10A5600029D0702A00D0B0E0202209680A43226076
:10A5700037E0752A1FD0782A33D0A6E00E1C1A685F
:10A580004236111D196013683370A1E021681A6802
:10A59000080606D4490604D5111D19600023D55EAE
:10A5A00002E0111D19601568002D3BDA2D23049A75
:10A5B0006D42137036E021681A68080606D4490611
:10A5C00004D51568111D1960ADB202E0111D1960A6
:10A5D00015685A4B227E03930A276F2A1DD108273C
:10A5E0001BE0221C782145321170554A19680392EC
:10A5F000081D226818600D68100602D4500600D5A8
:10A60000ADB2D30702D520231A4322601027002DB4
:10A6100003D1202322689A432260231C0022433363
:10A620001A7002E00A27454B03936368A360002B6E
:10A6300003DB0422216891432160002D02D1049E96
:10A64000002B0ED0049E281C391CFFF7A7FA039B91
:10A65000013E5B5C281C3370391CFFF719FA051E9C
:10A66000F1D1082F09D12368DB0706D56368226979
:10A67000934202DC3023013E3370049B9B1B236119
:10A680002BE009681A68080607D4490605D5111D8C
:10A6900019601368A28A1A8004E0111D19601368FA
:10A6A00062691A600023049E236116E01A68111D76
:10A6B000196016680021301C626800F0FFF900285C
:10A6C00001D0801B6060636803E0261C4236327054
:10A6D000012323610023049A1370079B05980093BC
:10A6E000211C069B09AAFFF7A7FE431C02D10120EB
:10A6F000404221E0236905980699321C079DA8472E
:10A70000431CF4D023689B0705D4099BE06898425A
:10A7100012DA181C10E00025E368099A9B1A9D4282
:10A72000F3DA221C0123059806991932079EB047D7
:10A73000431CDCD00135EFE70BB0F0BDD9AD001004
:10A74000EAAD001038B50023064C051C081C236038
:10A75000FFF750F8431C03D12368002B00D02B6077
:10A7600038BDC04600B1001038B50C1C0E25495F3D
:10A7700000F0B0F9002803DB636D1B18636503E08C
:10A78000A289024B1340A38138BDC046FFEFFFFFF3
:10A79000F8B51E1C8B89051C0C1C171CDB0505D588
:10A7A0000E23C95E0022022300F01CF9A289054B8A
:10A7B000281C1340A3813A1C0E23E15E331C00F0D9
:10A7C00077F8F8BDFFEFFFFF38B50C1C0E25495F89
:10A7D00000F008F9A389421C03D1054A1340A38164
:10A7E00004E0802252011343A381606538BDC04656
:10A7F000FFEFFFFF08B50E23C95E00F0E1F808BDCA
:10A8000070B5051C0E1C141C002804D08369002B95
:10A8100001D1FFF79FFB234B9C4201D16C6808E0FC
:10A82000214B9C4201D1AC6803E0204B9C4200D1FB
:10A83000EC68A369A360A3891B070AD52369002BD1
:10A8400007D023682269F6B2981A636998420FDB31
:10A8500008E0281C211C00F03FF80028F1D001205E
:10A8600040421DE0281C211CFFF706FB0028F6D102
:10A87000A3680130013BA36023685A1C22601E704C
:10A880006369984205D0A389301CDB0708D50A2EDE
:10A8900006D1281C211CFFF7EFFA0028DFD1301C5D
:10A8A00070BDC04668AD001088AD0010A8AD0010A6
:10A8B00038B5051C0020074C2060081C111C1A1C10
:10A8C000FDF762FF431C03D12368002B00D02B60EF
:10A8D00038BDC04600B10010354B70B51D68061C70
:10A8E0000C1C002D05D0AB69002B02D1281CFFF7F2
:10A8F00031FB304B9C4201D16C6808E02E4B9C42EE
:10A9000001D1AC6803E02D4B9C4200D1EC68A389D7
:10A910009AB2110723D4D10607D40922012032604C
:10A9200037321343A381404240E0530713D5616B94
:10A93000002908D0231C4433994202D0301CFFF771
:10A94000A5FB002363632422A3899343A3810023EF
:10A950006360236923600822A3891343A3812369C9
:10A96000002B0BD1A023A2899B00134080229200D0
:10A97000934203D0301C211C00F048F80123A28927
:10A98000134005D00023A36063695B42A36103E029
:10A99000910700D46369A36000202369834205D135
:10A9A000130603D540231A43A281013870BDC04667
:10A9B0007CAE001068AD001088AD0010A8AD00108E
:10A9C00038B50023064C051C081C2360FEF724FF45
:10A9D000431C03D12368002B00D02B6038BDC04638
:10A9E00000B1001038B5051C0020074C2060081C81
:10A9F000111C1A1CFEF71CFF431C03D12368002BFB
:10AA000000D02B6038BDC04600B10010F0B58B8976
:10AA100091B09B0706D50B1C47330B600B610123DC
:10AA20004B6145E00C1C0E23C95E061C002904DAAC
:10AA30008023A5891D4010D10CE001AA00F05EF82A
:10AA40000028F5DBF023029D1B021D40194BED1879
:10AA50006B425D418027FF0001E000254027301C4C
:10AA6000391CFFF759FB00280CD1A3899A051FD484
:10AA700002221343A381231C473323602361012354
:10AA8000636115E080220C4BB362A38920601343FD
:10AA9000A38120616761002D0AD00E23E15E301C86
:10AAA00000F03EF8002803D00122A3891343A381BC
:10AAB00011B0F0BD00E0FFFFD19E0010C9B28218B6
:10AAC000904204D003788B4202D00130F8E7002096
:10AAD0007047000038B5051C0020074C2060081C9A
:10AAE000111C1A1CFDF72EFE431C03D12368002BFA
:10AAF00000D02B6038BDC04600B1001038B500232F
:10AB0000064C051C081C111C2360FEF789FE431C23
:10AB100003D12368002B00D02B6038BD00B100109A
:10AB200038B50023064C051C081C2360FEF77EFE8A
:10AB3000431C03D12368002B00D02B6038BDC046D6
:10AB400000B100105564560A570F3201A00054029C
:10AB500033073401FC8B00100A8C0010188C001095
:10AB6000268C0010348C0010428C0010508C001089
:10AB7000608C0010708C0010808C0010908C001085
:10AB8000A08C0010B08C0010C08C0010D08C001075
:10AB9000E08C0010F08C0010008D0010108D001063
:10ABA000208D0010308D0010408D0010508D001051
:10ABB000608D0010708D0010808D0010908D001041
:10ABC000A08D0010AE8D0010BC8D0010CA8D00103D
:10ABD000D88D0010E68D0010F48D0010028E00104C
:10ABE000108E0010208E0010308E0010408E00104D
:10ABF000508E0010608E0010708E0010808E00103D
:10AC0000908E0010A08E0010B08E0010C08E00102C
:10AC1000D08E0010E08E0010F08E0010008F00101B
:10AC2000108F00101E8F00102C8F00106C8F0010E2
:10AC3000948F0010BC8F0010E48F0010249200103D
:10AC4000149000102C900010A4900010BC900010E4
:10AC5000449000105C900010749000108C900010D4
:10AC6000D4900010989300109893001098930010BF
:10AC700098930010989300109893001098930010E8
:10AC8000989300107C91001094910010AC910010EA
:10AC90003A920010049100109893001098930010BD
:10ACA00098930010989300109893001098930010B8
:10ACB000C4910010DC910010F49100100C9200106F
:10ACC0009893001050930010689300109893001010
:10ACD00098930010669200107C92001092920010DF
:10ACE000A892001098930010989300109893001069
:10ACF0009893001098930010989300109893001068
:10AD000098930010588F0010808F0010A88F0010AB
:10AD1000D08F0010FC8F0010EC9000101C910010E0
:10AD2000349100104C91001064910010509200106A
:10AD3000BE920010389300108093001048616E643A
:10AD40006C65720A0D00000025643A25643A25649A
:10AD50003A25643A25643A25643A25640A0D0000D0
:10AD6000430000001CAE00100000000000000000C6
:10AD700000000000000000000000000000000000D3
:10AD800000000000000000000000000000000000C3
:10AD900000000000000000000000000000000000B3
:10ADA00000000000000000000000000000000000A3
:10ADB0000000000000000000000000000000000093
:10ADC0000000000000000000232D302B2000686CE4
:10ADD0004C006566674546470030313233343536BE
:10ADE00037383941424344454600303132333435F7
:10ADF000363738396162636465660000F8B5C0466D
:10AE0000F8BC08BC9E467047B1800010F8B5C0463B
:0CAE1000F8BC08BC9E467047898000100A
:10AE1C000000000068AD001088AD0010A8AD001057
:10AE2C000000000000000000000000000000000016
:10AE3C0060AD0010000000000000000000000000E9
:10AE4C0000000000000000000000000000000000F6
:10AE5C0000000000000000000000000000000000E6
:10AE6C0000000000000000000000000000000000D6
:04AE7C001CAE0010F8
:040000051000800166
:00000001FF
